:100000000C948E010C94F23D0C94233E0C94543EBF
:100010000C94853E0C94B63E0C94E73E0C94183F2D
:100020000C94493F0C94BA010C94BA010C94BA0197
:100030000C94BA010C94BA010C94BA010C94BA0154
:100040000C94BA010C94BA010C94BA010C94BA0144
:100050000C9418090C94BA010C94BA010C947A3FD0
:100060000C94BA010C945E390C94BA010C94BA0148
:100070000C94BA010C94BA010C94BA010C94BA0114
:100080000C94BA010C94BA010C94BA010C94BA0104
:100090000C9493390C94BA010C94BA010C94BA01E3
:1000A0000C94BA010C94BA010C94BA010C94BA01E4
:1000B0000C94BA010C94BA010C94BA010C94BA01D4
:1000C0000C94BA010C94BA010C94BA010C94C8397E
:1000D0000C94BA010C94BA010C94FD390C94BA0139
:1000E0000C94BA017C3C3E5E2B3D3F2F5B5D3B2C6C
:1000F0002A225C00005EBCE2613FDD83C29C7E2060
:10010000A3FD1F419DC3217FFCA2401E5F01E3BDF3
:100110003E6082DC237D9FC1421CFEA0E1BF5D03E7
:1001200080DE3C62BEE0025CDF81633D7C22C09EDB
:100130001D43A1FF4618FAA427799BC584DA3866C7
:10014000E5BB5907DB856739BAE406581947A5FBB3
:100150007826C49A653BD987045AB8E6A7F91B45A7
:10016000C6987A24F8A6441A99C7257B3A6486D89B
:100170005B05E7B98CD2306EEDB3510F4E10F2AC87
:100180002F7193CD114FADF3702ECC92D38D6F3173
:10019000B2EC0E50AFF1134DCE90722C6D33D18F67
:1001A0000C52B0EE326C8ED0530DEFB1F0AE4C125B
:1001B00091CF2D73CA947628ABF517490856B4EA47
:1001C0006937D58B5709EBB536688AD495CB297733
:1001D000F4AA4816E9B7550B88D6346A2B7597C927
:1001E0004A14F6A8742AC896154BA9F7B6E80A541B
:1001F000D7896B3500002100240027002A002D003C
:100200003000330001010000040107010A01000071
:100210002200250028002B002E00310034000201AE
:100220000000050108010B0100002000230026004A
:1002300029002C002F0032000001000003010601FC
:10024000090105050505070508080808020202025C
:100250000A0A080804040404010101010101010162
:100260000303030303030303040707070C0C0C0C2D
:100270000C0C0C0C02020202060606060606060616
:100280000B0B0B0B0B0B0B0B0102102020080810A3
:1002900020401020408002010201080402010102F6
:1002A00004081020408080402010080402018004CF
:1002B000020180402010080402010804020101022A
:1002C0000408102040800102040810204080000033
:1002D000090A02080B0C0D070603040100000000C8
:1002E000000000000000000000000000000000000E
:1002F00000000000000000000000100F0E000000D1
:1003000000000000000000000000000000000000ED
:10031000000000005327903B4C27973B11241FBE41
:10032000CFEFD1E2DEBFCDBF00E00CBF17E0A0E011
:10033000B2E0EAEFF8E800E00BBF02C007900D92D0
:10034000A234B107D9F71DE0A2E4B7E001C01D92C5
:10035000A13EB107E1F713E0C8E1D3E004C0229762
:10036000FE010E944A43C431D107C9F70E944E39A9
:100370000C9470440C940000EF92FF920F931F9323
:100380007B018C0120E030E040E05FE40E949805B2
:1003900088238CF0C801B70120E030E040E05FE442
:1003A0000E9434030E9456069B01AC01205030404D
:1003B0004040504806C0C801B7010E9456069B0144
:1003C000AC01B901CA011F910F91FF90EF90089500
:1003D000A0E0B0E0EEEEF1E00C941143DC012B0163
:1003E000FA019C91923008F439C1EB018881823086
:1003F00008F433C1943069F4843009F02FC11196A8
:100400009C9111978981981709F428C1AEE3B5E052
:1004100025C1843009F421C18230A9F4923009F059
:100420001DC19A01AD0188E0EA010990AE01E90120
:1004300009929E018150C1F7E201898111969C9138
:100440008923818308C1923009F407C112962D9047
:100450003C901397EB018A819B811496AD90BD90DF
:10046000CD90DC901797EC80FD800E811F8191016B
:10047000281B390BB90137FF04C066277727621B99
:10048000730B603271050CF061C0121613066CF527
:1004900037014801062E04C0969487947794679498
:1004A0000A94D2F721E030E040E050E004C0220F8F
:1004B000331F441F551F6A95D2F7215030404040EA
:1004C00050402E213F214023512321153105410564
:1004D000510521F021E030E040E050E079018A014F
:1004E000E628F728082919293CC0232BD1F1260E2C
:1004F000371E35014601062E04C0969487947794E2
:1005000067940A94D2F721E030E040E050E004C064
:10051000220F331F441F551F6A95D2F721503040D8
:10052000404050402A213B214C215D2121153105BD
:100530004105510521F021E030E040E050E0590153
:100540006A01A628B728C828D9280BC082159305A8
:100550002CF01C01AA24BB24650103C0EE24FF2457
:10056000870111969C91D20111968C91981709F4EC
:1005700045C0992339F0A80197012A193B094C0974
:100580005D0906C0A60195012E193F09400B510BCC
:1005900057FD08C01182338222822483358346832B
:1005A00057831DC081E08183338222828827992767
:1005B000DC01821B930BA40BB50B84839583A6836C
:1005C000B7830DC0220F331F441F551F248335836B
:1005D0004683578382819381019793838283248109
:1005E000358146815781DA01C9010197A109B10915
:1005F0008F5F9F4FAF4FBF4328F30BC09183338270
:100600002282EA0CFB1C0C1D1D1DE482F582068370
:10061000178383E08083248135814681578157FF8A
:100620001AC0C901AA2797FDA095BA2F81709070B2
:10063000A070B0705695479537952795822B932BD0
:10064000A42BB52B84839583A683B7838281938162
:10065000019693838283DF0101C0D201CD01CDB722
:10066000DEB7E2E10C942D43A0E2B0E0EAE3F3E070
:100670000C941D4369837A838B839C832D833E83F3
:100680004F835887E9E0EE2EF12CEC0EFD1ECE01D3
:100690000196B7010E9447088E010F5E1F4FCE01E1
:1006A0000596B8010E9447088A8991E089278A8BBC
:1006B000C701B801AE01475E5F4F0E94E8010E948A
:1006C0007207A096E6E00C943943A0E2B0E0EBE6B6
:1006D000F3E00C941D4369837A838B839C832D8381
:1006E0003E834F835887F9E0EF2EF12CEC0EFD1E70
:1006F000CE010196B7010E9447088E010F5E1F4F81
:10070000CE010596B8010E944708C701B801AE01A5
:10071000475E5F4F0E94E8010E947207A096E6E0E4
:100720000C943943A0E2B0E0E8E9F3E00C94114303
:1007300069837A838B839C832D833E834F83588781
:10074000CE010196BE01675F7F4F0E944708CE0130
:100750000596BE016F5E7F4F0E94470899859230D3
:1007600088F089898230C8F0943019F4823051F4CD
:1007700004C0843029F4923081F48EE395E0C6C041
:10078000923049F420E09A858A89981321E02A87DB
:10079000CE010996BBC0823049F420E09A858A894F
:1007A000981321E02A8BCE014196B0C02D843E845F
:1007B0004F8458886D887E888F88988CEE24FF241B
:1007C0008701AA24BB24650140E050E060E070E0AE
:1007D000E0E0F0E0C10181709070892BE9F0E60C57
:1007E000F71C081D191D9A01AB012A0D3B1D4C1D5C
:1007F0005D1D80E090E0A0E0B0E0E614F70408059D
:10080000190520F481E090E0A0E0B0E0BA01A90170
:10081000480F591F6A1F7B1FAA0CBB1CCC1CDD1C78
:1008200097FE08C081E090E0A0E0B0E0A82AB92AD5
:10083000CA2ADB2A3196E032F10549F0660C771CB2
:10084000881C991C5694479437942794C3CFFA85F3
:10085000EA892B893C898B859C85280F391F2E5F5F
:100860003F4F17C0CA0181709070892B61F01695B7
:100870000795F794E79480E090E0A0E0B0E8E82ADC
:10088000F92A0A2B1B2B76956795579547952F5F6D
:100890003F4F77FDE7CF0CC0440F551F661F771FF2
:1008A00017FD4160EE0CFF1C001F111F215030404E
:1008B000403090E0590790E0690790E4790760F3D1
:1008C0002B8F3C8FDB01CA018F779070A070B070C6
:1008D00080349105A105B10561F447FD0AC0E1141A
:1008E000F1040105110529F0405C5F4F6F4F7F4F08
:1008F00040781A8EFE1711F081E08A8F4D8F5E8F3F
:100900006F8F78A383E0898FCE0149960E9472078A
:10091000A096E2E10C942D43A8E1B0E0E2E9F4E016
:100920000C94194369837A838B839C832D833E8344
:100930004F835887B9E0EB2EF12CEC0EFD1ECE0153
:100940000196B7010E9447088E010F5E1F4FCE012E
:100950000596B8010E9447082985223008F47EC018
:100960003989323010F4B8017CC08A859A89892788
:100970008A87243011F0223031F4231709F06EC039
:100980006EE375E06EC0343039F41D861E861F8616
:10099000188A1C861B8604C0323021F484E08987C3
:1009A000B7015FC02B853C858B899C89281B390B3F
:1009B0003C872B87ED84FE840F851889AD88BE881F
:1009C000CF88D88CEA14FB040C051D0540F4EE0C0E
:1009D000FF1C001F111F215030403C872B8720E057
:1009E00030E040E050E080E090E0A0E0B0E460E083
:1009F00070E0EA14FB040C051D0540F0282B392B90
:100A00004A2B5B2BEA18FB080C091D09B695A79524
:100A100097958795EE0CFF1C001F111F6F5F7F4F8E
:100A20006F31710531F7DA01C9018F779070A070CD
:100A3000B07080349105A105B10561F427FD0AC0AD
:100A4000E114F1040105110529F0205C3F4F4F4FDF
:100A50005F4F20782D873E874F87588BBE01675F99
:100A60007F4FCB010E9472076896EAE00C943543F1
:100A7000A8E1B0E0EEE3F5E00C941D4369837A83CE
:100A80008B839C832D833E834F83588789E0E82E98
:100A9000F12CEC0EFD1ECE010196B7010E94470815
:100AA0008E010F5E1F4FCE010596B8010E944708C8
:100AB0008985823040F08989823028F0C701B801E9
:100AC0000E94BF0801C081E06896E6E00C943943BB
:100AD000A8E1B0E0EEE6F5E00C941D4369837A836B
:100AE0008B839C832D833E834F83588789E0E82E38
:100AF000F12CEC0EFD1ECE010196B7010E944708B5
:100B00008E010F5E1F4FCE010596B8010E94470867
:100B10008985823040F08989823028F0C701B80188
:100B20000E94BF0801C08FEF6896E6E00C9439433D
:100B3000A8E1B0E0EEE9F5E00C941D4369837A8307
:100B40008B839C832D833E834F83588789E0E82ED7
:100B5000F12CEC0EFD1ECE010196B7010E94470854
:100B60008E010F5E1F4FCE010596B8010E94470807
:100B70008985823040F08989823028F0C701B80128
:100B80000E94BF0801C08FEF6896E6E00C943943DD
:100B9000A8E1B0E0EEECF5E00C941D4369837A83A4
:100BA0008B839C832D833E834F83588789E0E82E77
:100BB000F12CEC0EFD1ECE010196B7010E944708F4
:100BC0008E010F5E1F4FCE010596B8010E944708A7
:100BD0008985823040F08989823028F0C701B801C8
:100BE0000E94BF0801C081E06896E6E00C9439439A
:100BF000A8E0B0E0EEEFF5E00C941A439B01AC01E5
:100C000083E08983DA01C9018827B7FD8395992795
:100C1000AA27BB27B82E211531054105510519F426
:100C200082E089833AC08823A9F0203080E0380729
:100C300080E0480780E8580729F460E070E080E031
:100C40009FEC30C0EE24FF248701E21AF30A040B64
:100C5000150B02C079018A018EE1C82ED12CDC82ED
:100C6000CB82ED82FE820F831887C801B7010E94F4
:100C7000230701971816190684F4082E04C0EE0CF9
:100C8000FF1C001F111F0A94D2F7ED82FE820F8312
:100C90001887C81AD90ADC82CB82BA82CE010196A3
:100CA0000E9472072896E9E00C943643ACE0B0E06D
:100CB000ECE5F6E00C94214369837A838B839C8373
:100CC000CE010196BE016B5F7F4F0E9447088D8168
:100CD000823061F1823050F1843021F48E8188239A
:100CE00051F12EC02F81388537FD20C06E812F3104
:100CF00031051CF06623F9F023C08EE190E0821BE1
:100D0000930B29853A854B855C8504C0569547959C
:100D1000379527958A95D2F76623B1F0509540957F
:100D2000309521953F4F4F4F5F4F0EC020E030E090
:100D300040E050E009C02FEF3FEF4FEF5FE704C006
:100D400020E030E040E050E8B901CA012C96E2E032
:100D50000C943D43A8E0B0E0E0EBF6E00C941943BE
:100D60007B018C01611571058105910519F482E003
:100D7000898360C083E089838EE1C82ED12CDC8218
:100D8000CB82ED82FE820F831887C801B7010E94D3
:100D90002307FC013197F7FF3BC0222733272E1B87
:100DA0003F0B57016801022E04C0D694C794B79434
:100DB000A7940A94D2F740E050E060E070E081E050
:100DC00090E0A0E0B0E004C0880F991FAA1FBB1FED
:100DD0002A95D2F70197A109B1098E219F21A0235D
:100DE000B1230097A105B10521F041E050E060E09A
:100DF00070E04A295B296C297D294D835E836F83CE
:100E000078878EE190E08E1B9F0B9C838B8312C0B2
:100E1000309781F00E2E04C0EE0CFF1C001F111F36
:100E20000A94D2F7ED82FE820F831887CE1ADF0A6A
:100E3000DC82CB821A82CE0101960E94720728962C
:100E4000EAE00C943543EF92FF920F931F937B01DE
:100E50008C0180E0E81680E0F80681E0080780E079
:100E6000180788F48FEFE816F1040105110531F039
:100E700028F088E090E0A0E0B0E017C080E090E0CB
:100E8000A0E0B0E012C080E0E81680E0F80680E064
:100E9000080781E0180728F088E190E0A0E0B0E0C2
:100EA00004C080E190E0A0E0B0E020E230E040E06B
:100EB00050E0281B390B4A0B5B0B04C016950795B5
:100EC000F794E7948A95D2F7F701EA5BFA4F8081AD
:100ED000281B310941095109C9011F910F91FF9048
:100EE000EF900895DF92EF92FF920F931F93FC0112
:100EF000E480F58006811781D1808081823048F4BA
:100F000080E090E0A0E1B0E0E82AF92A0A2B1B2B50
:100F1000A5C0843009F49FC0823021F4EE24FF2460
:100F2000870105C0E114F1040105110519F4E0E0A1
:100F3000F0E096C0628173819FEF623879070CF010
:100F40005BC022E83FEF261B370B2A3131052CF01E
:100F500020E030E040E050E02AC0B801A701022EB6
:100F600004C076956795579547950A94D2F781E026
:100F700090E0A0E0B0E004C0880F991FAA1FBB1F3B
:100F80002A95D2F70197A109B1098E219F21A023AB
:100F9000B1230097A105B10521F081E090E0A0E028
:100FA000B0E09A01AB01282B392B4A2B5B2BDA01DD
:100FB000C9018F779070A070B07080349105A10541
:100FC000B10539F427FF09C0205C3F4F4F4F5F4FF9
:100FD00004C0215C3F4F4F4F5F4FE0E0F0E0203016
:100FE000A0E03A07A0E04A07A0E45A0710F0E1E0C9
:100FF000F0E079018A0127C06038710564F5FB01D2
:10100000E158FF4FD801C7018F779070A070B07082
:1010100080349105A105B10539F4E7FE0DC080E4E7
:1010200090E0A0E0B0E004C08FE390E0A0E0B0E08A
:10103000E80EF91E0A1F1B1F17FF05C0169507951E
:10104000F794E794319687E016950795F794E7941F
:101050008A95D1F705C0EE24FF248701EFEFF0E079
:101060006E2F679566276795902F9F77D794DD241D
:10107000D7948E2F8695492F462B582F5D29B7017F
:10108000CA011F910F91FF90EF90DF900895FC012E
:10109000DB01408151812281622F6F7770E0221F36
:1010A0002227221F9381892F880F822B282F30E03F
:1010B000991F9927991F11969C9311972115310516
:1010C000A9F5411551056105710511F482E037C09C
:1010D00082E89FEF13969C938E9312979A01AB012F
:1010E00067E0220F331F441F551F6A95D1F783E035
:1010F0008C930DC0220F331F441F551F12968D91E4
:101100009C911397019713969C938E93129720307E
:1011100080E0380780E0480780E4580758F31496C9
:101120002D933D934D935C93179708952F3F310571
:1011300079F4411551056105710519F484E08C932A
:10114000089564FF03C081E08C9312C01C9210C00C
:101150002F57304013963C932E93129783E08C9335
:1011600087E0440F551F661F771F8A95D1F770647B
:1011700014964D935D936D937C93179708951F93E9
:10118000DC01FB019C91923008F447C080818230E1
:1011900008F443C0943051F411961C91843099F5B1
:1011A0008181682F70E0611B71093FC0843021F09C
:1011B000923031F48230B9F18181882389F12DC0D8
:1011C00011961C9111978230F1F081811817D9F492
:1011D00012962D913C9113978281938182179307E8
:1011E00094F028173907BCF014968D919D910D90BD
:1011F000BC91A02D2481358146815781281739075C
:101200004A075B0718F4112341F00AC082179307BD
:10121000A407B50740F4112319F061E070E005C0A0
:101220006FEF7FEF02C060E070E0CB011F91089587
:101230001F920F920FB60F920BB60F9211242F939D
:101240003F934F935F936F937F938F939F93AF934E
:10125000BF93EF93FF93E0914507F09146071995EF
:10126000FF91EF91BF91AF919F918F917F916F917E
:101270005F914F913F912F910F900BBE0F900FBE3A
:101280000F901F901895FC01A3E0440F551F661F97
:10129000771FAA95D1F7403080E0580781E06807B2
:1012A00080E0780714F481E010C033E0759567950D
:1012B000579547953A95D1F7403080E0580781E03F
:1012C000680780E078071CF482E0828339C023E05D
:1012D00075956795579547952A95D1F7403080E0E9
:1012E000580781E0680780E0780714F483E0EDCFC9
:1012F00092E075956795579547959A95D1F7403047
:1013000080E0580781E0680780E0780714F484E003
:10131000DCCF82E075956795579547958A95D1F70B
:10132000403080E0580781E0680780E0780714F4D7
:1013300085E0CBCF85E082834FEF5FEF60E070E028
:1013400051834083509387004093860080918100B1
:10135000887F80938100809181009281892B809386
:10136000810008951092800020E1209381000E9466
:10137000430908950F931F93CF93DF93EC018B01E3
:10138000121613061406150624F4BA01A9010E94C8
:1013900043091C830B8381E080936F0078948091D4
:1013A00081009A81892B80938100DF91CF911F91D9
:1013B0000F910895EFE6F0E080818E7F808308959D
:1013C000F8942D9A80E090E02F9A00000000880F9A
:1013D0001E9981602F989F5F9830B1F77894089597
:1013E000F89490E02F9887FF02C02D9A01C02D98A5
:1013F0002F9A9F5F983011F0880FF4CF0000000003
:10140000000000002F98789408950F931F93CF93B6
:10141000DF938B010E94F009C0E0D0E0F801EC0FEF
:10142000FD1F80810E94F009219682E0C030D8071C
:10143000A9F7DF91CF911F910F9108950F931F93FB
:10144000CF93DF938B010E94C23FEB0109C00E9442
:10145000C23F6C1B7D0B6017710710F080E005C068
:101460000E94E0098F3F99F781E0DF91CF911F91B2
:101470000F910895FC01808160E00E943042089540
:10148000DF92EF92FF920F931F93CF93DF93EC01C4
:10149000D62E79018A010E943A0ACE016CE271E0EF
:1014A0000E941E0A8D2D80640E94F009812F9927C9
:1014B000AA27BB270E94F009C801AA27BB270E94C0
:1014C000F009BB27A12F902F8F2D0E94F0098E2DA0
:1014D0000E94F009DD2011F485E906C088E0D816E5
:1014E00011F487E801C08FEF0E94F0098CE0D81654
:1014F00011F40E94E0091FEF0E94E0098B8387FF2F
:1015000004C0112311F01150F7CFDF91CF911F913B
:101510000F91FF90EF90DF900895FC01808161E0D2
:101520000E9430428FEF0E94F0090895CF93DF931D
:10153000EC01862FBA010E94050A8FEF0E94F00984
:101540008FEF0E94F0090E94E0098B838F71853034
:1015500011F481E006C083E18983CE010E948D0AE7
:1015600080E0DF91CF910895CF92DF92EF92FF92CA
:101570000F931F93CF93DF93EC017A018B016901E5
:101580008C81833039F049E0EE0CFF1C001F111FE5
:101590004A95D1F7CE0168E1A80197010E94400A5F
:1015A000882311F086E01FC0CE016EEFA6010E94D5
:1015B000960A8823C9F0CE0168E572E00E941E0AEF
:1015C000882311F487E10FC0CE016DE020E030E008
:1015D00040E050E00E94400A882321F40E94E00984
:1015E000882379F086E18983CE010E948D0A80E00C
:1015F000DF91CF911F910F91FF90EF90DF90CF90EF
:101600000895CE010E948D0A81E0F2CFCF92DF9241
:10161000EF92FF920F931F93CF93DF938C016B0197
:101620007A010E94C23FEB0109C00E94C23F6C1BBD
:101630007D0B6D52714010F081E10CC00E94E009F9
:10164000F80183838F3F89F38E3F19F4C0E0D0E027
:101650000FC08FE0F8018183C8010E948D0A80E0ED
:1016600012C00E94E009F601EC0FFD1F8083219655
:10167000CE15DF05B0F30E94E0090E94E009C80121
:101680000E948D0A81E0DF91CF911F910F91FF9011
:10169000EF90DF90CF900895CF92DF92EF92FF927C
:1016A0000F931F93CF93DF93EC017A018B016901B4
:1016B0008C81833039F0A9E0EE0CFF1C001F111F54
:1016C000AA95D1F7CE0161E1A80197010E94400AD5
:1016D000882339F084E08983CE010E948D0A80E05E
:1016E00006C0CE01B60140E052E00E94060BDF9139
:1016F000CF911F910F91FF90EF90DF90CF900895C1
:10170000CF92DF92EF92FF920F931F93CF93DF93CD
:10171000EC011C82198248830E94C23F6B018881C0
:1017200061E00E949741888161E00E9430428CE034
:1017300060E00E9497418BE061E00E9497418DE05C
:1017400061E00E94974110E08FEF0E94F0091F5F57
:101750001A30D1F709C00E94C23F6C197D09615D42
:10176000774010F081E05AC0CE0160E020E030E028
:1017700040E050E00E94400A182F8B83813059F7D7
:10178000CE0168E02AEA31E040E050E00E94400AE1
:1017900082FF02C01C830DC010E00E94E0098B8311
:1017A0001F5F1430D1F78A3A11F082E037C082E02F
:1017B0008C838C81823021F0EE24FF2487010FC0BE
:1017C000E12CF12C012D80E4182F09C00E94C23FAA
:1017D0006C197D09615D774010F08AE01FC0CE0171
:1017E00067E320E030E040E050E00E94400ACE0194
:1017F00069E2A80197010E94400A8B83882331F790
:101800008C818230F1F4CE016AE320E030E040E0E8
:1018100050E00E94400A882339F088E08983CE0195
:101820000E948D0A80E011C00E94E009807C803C0B
:1018300011F483E08C830E94E0090E94E0090E9479
:10184000E009CE010E948D0A81E0DF91CF911F91C6
:101850000F91FF90EF90DF90CF9008950F931F931B
:10186000CF93DF93DC01EB018A0180E090E020E27E
:10187000FE01E80FF91F208301968B309105C1F717
:1018800057E040E024C0622F2E3219F084EE90E041
:1018900007C05A3051F15AE048E018C0321729F118
:1018A000FC01019634913323C9F75417F0F021322B
:1018B000E0F02F37D0F4822F81568A3110F4622F56
:1018C0006052FE01E40FF11D60834F5F11962C9171
:1018D000222311F02F32B9F6F801B183A08390E0F2
:1018E0008881803219F091E001C090E0892FDF916A
:1018F000CF911F910F9108956F927F928F929F9237
:10190000AF92BF92CF92DF92EF92FF920F931F930D
:10191000CF93DF93EC017A018B012B81222309F411
:1019200080C089899A89AB89BC8984179507A607E5
:10193000B70708F476C085C0E114F104010511056C
:1019400051F41C821D821E821F82188619861A86F7
:101950001B8681E067C0288539854A855B85E98DCE
:10196000FA8D858590E009962150304040405040E6
:1019700039014A01082E04C096948794779467949D
:101980000A94D2F72F5F3F4F4F4F5F4F0894E10803
:10199000F108010911095701680104C0D694C794E0
:1019A000B794A7948A95D2F70894E11CF11C011D05
:1019B000111DA614B704C804D90428F02115310557
:1019C0004105510549F48D899E89AF89B88D8C8375
:1019D0009D83AE83BF8316C0A618B708C808D90870
:1019E00011C04C815D816E817F81898D9A8D9401BA
:1019F0000E94D1170894A108B108C108D108882312
:101A000031F40FC084E0882E912C8C0E9D1EA11401
:101A1000B104C104D10429F7E886F9860A871B8737
:101A200098CF80E0DF91CF911F910F91FF90EF90C1
:101A3000DF90CF90BF90AF909F908F907F906F90EE
:101A40000895223009F078CFE7CFCF93DF93EC01F0
:101A50008C859D85AE85BF8540E0611141E0BC016C
:101A6000CD010E94A715882319F420E030E00AC0B8
:101A70008889282F30E095E0220F331F9A95E1F7EF
:101A8000215B384FC901DF91CF9108950F931F93C8
:101A9000CF93DF938C01FC0183818823F1F1818155
:101AA00087FF38C0C80161E00E94250DEC01009756
:101AB000A1F18881853E89F1F8018381823040F46B
:101AC00081899289A389B4898C8F9D8FAE8FBF8FB6
:101AD000F801858996899B8F8A8F85899689A78940
:101AE000B08DCD01AA27BB279D8B8C8BE091490738
:101AF000F0914A07309751F0BE016A5E7F4FCE01E8
:101B000048961995888D998D9B8B8A8BF8018181D8
:101B10008F7781830E946C1504C081E0F801808377
:101B200080E0DF91CF911F910F9108950F931F9344
:101B30008C010E94460DF80113821F910F910895A8
:101B4000FC018381882319F0CF010E94960D08952E
:101B50006F927F928F929F92AF92BF92CF92DF92BD
:101B6000EF92FF920F931F93DF93CF9300D00F92CA
:101B7000CDB7DEB77C015A016B01DC0113968C9165
:101B80001397813009F091C011968C9181FF8DC01F
:101B9000A0C00097A105B10511F481E087C0F7014D
:101BA0006084718482849384C701B601A5010E9478
:101BB0007C0C882309F479C0D70159968D919C91AA
:101BC0005A97A114B104C104D10489F455964D91DA
:101BD0005D916D917C9158970E944718882309F474
:101BE00064C0F701158A168A178A108E44C0D7017F
:101BF00014964D915D916D917C9117979E012F5F89
:101C00003F4F0E94D117882309F44FC0D70159963E
:101C1000ED91FC915A9749815A816B817C8187892A
:101C2000803149F4483FBFEF5B07B0E06B07B0E09D
:101C30007B0748F020C0483F8FEF58078FEF6807B9
:101C40008FE07807C0F4CF010E944718882369F11C
:101C5000D70114964D915D916D917C91179759968E
:101C60008D919C915A970FEF1FEF2FEF3FE00E944D
:101C70004A178823D1F0F701A18AB28AC38AD48A8D
:101C8000818180688183C7010E94460D882369F0A5
:101C9000B601A5016A147B048C049D0410F4B40100
:101CA000A301C7010E947C0C01C080E00F900F903F
:101CB0000F900F90CF91DF911F910F91FF90EF90B8
:101CC000DF90CF90BF90AF909F908F907F906F905C
:101CD0000895F70181899289A389B48984179507AA
:101CE000A607B70708F055CFE0CF2F923F924F924B
:101CF0005F926F927F928F929F92AF92BF92CF929C
:101D0000DF92EF92FF920F931F93CF93DF93EC013B
:101D10002A018B81882309F4B6C0898180FFB3C072
:101D2000C8C025014E185F083B0174E0272E312CF6
:101D30002C0E3D1E4201A1C0288539854A855B8550
:101D40006FEFA62E61E0B62EA222B3228B8179011D
:101D50008A0199E016950795F794E7949A95D1F73B
:101D6000E98DFA8D823049F4428D538D648D758DE5
:101D70004E0D5F1D601F711F3FC0D480DA94DE20BE
:101D8000A114B104D9F4DD20C9F4211531054105B0
:101D9000510549F48D899E89AF89B88D8C839D83C7
:101DA000AE83BF830BC04C815D816E817F81CF018B
:101DB00091010E94D117882309F465C0E98DFA8D3D
:101DC0004C815D816E817F81425050406040704007
:101DD000058404C0440F551F661F771F0A94D2F76D
:101DE00086859785A089B189480F591F6A1F7B1F77
:101DF0004D0D511D611D711D80E092E08A199B09F6
:101E000084018815990508F48C0182E000301807D8
:101E100009F067C080914B0790914C07A0914D0746
:101E2000B0914E07481759076A077B0709F459C054
:101E300080914F099091500993010E944C0B882387
:101E400049F421C09501215B384FC301B901A801B4
:101E50000E946044600E711E980140E050E0888549
:101E60009985AA85BB85820F931FA41FB51F8887FC
:101E70009987AA87BB87801A910A8114910409F077
:101E80005BCFA20102C04FEF5FEFCA01DF91CF919C
:101E90001F910F91FF90EF90DF90CF90BF90AF9088
:101EA0009F908F907F906F905F904F903F902F907A
:101EB0000895A988BA88CB88DC88E884F9840A85E3
:101EC0001B859A0140E050E0D601C5018E199F099B
:101ED000A00BB10B281739074A075B0708F021CF81
:101EE00023CFCB01BA0140E00E94A715882309F057
:101EF000A9CFC9CFDF93CF930F92CDB7DEB7BE0185
:101F00006F5F7F4F41E050E00E94750E019719F01E
:101F10002FEF3FEF03C08981282F30E0C9010F90D8
:101F2000CF91DF910895EF92FF920F931F93CF937C
:101F3000DF93EC018B81823038F1E884F9840A85E3
:101F40001B85CE010E947A0F97FD1EC0888599855A
:101F5000AA85BB854F96A11DB11D88879987AA8741
:101F6000BB87F5E016950795F794E794FA95D1F7B6
:101F70002E2D30E02F703070E5E0220F331FEA95F0
:101F8000E1F7215B384F02C020E030E0C901DF916A
:101F9000CF911F910F91FF90EF9008950F931F9392
:101FA000CF93DF93EC018B018B81882309F040C034
:101FB000FB018789803109F041C082E08B831D8A53
:101FC0001E8A1F8A188E808D918DA0E0B0E025E0DA
:101FD000880F991FAA1FBB1F2A95D1F7898B9A8B4F
:101FE000AB8BBC8B13C083E08B83F801428D538D88
:101FF000648D758D4D8B5E8B6F8B788F9E012F5E00
:102000003F4FC8010E94A518882391F01A8F098FAD
:1020100081E089831C821D821E821F821886198698
:102020001A861B861C861D861E861F86188A01C07E
:1020300080E0DF91CF911F910F9108958032C1F719
:10204000D2CF1F93CF93DF93EC01142F262F30E0D4
:10205000F90155E0EE0FFF1F5A95E1F7E15BF84FEC
:102060008385817121F0842F827109F069C080918C
:102070004B0790914C07A0914D07B0914E078C876C
:102080009D87AE87BF87688BF90145E0EE0FFF1F84
:102090004A95E1F7E15BF84F84899589A0E0B0E0CB
:1020A000DC01992788278D8B9E8BAF8BB88F228D73
:1020B000338DA90160E070E0482B592B6A2B7B2BF4
:1020C0004D8B5E8B6F8B788F838590E088719070DD
:1020D000009751F4848D958DA68DB78D898B9A8B41
:1020E000AB8BBC8B81E00CC0409751F59E012F5EFD
:1020F0003F4F898D9A8D0E94A518882309F184E0AD
:102100008B83812F8F7089831C821D821E821F8288
:10211000188619861A861B8614FF18C0CE0140E067
:1021200050E060E070E00E94A80D882379F40AC0B6
:1021300049895A896B897C89CE010E947C0C02C036
:102140001B8280E0DF91CF911F91089515FDF0CFA4
:1021500081E0F8CFCF93DF93EC019C012C5F3F4FE0
:10216000898D9A8D41E050E060E070E00E94111985
:102170008823A1F08D899E89AF89B88D0097A1052C
:10218000B10559F48C819D81AE81BF818D8B9E8B71
:10219000AF8BB88F89818068898381E0DF91CF918F
:1021A00008952F923F924F925F927F928F929F92CB
:1021B000AF92BF92CF92DF92EF92FF920F931F9355
:1021C000DF93CF9300D000D0CDB7DEB76C01162FD0
:1021D000072F5E834D83DC0113968C91139781301A
:1021E00009F06FC111968C9181FF6BC188C1F60116
:1021F000418952896389748980859185A285B385D7
:1022000084179507A607B70731F0C6010E947C0C1A
:10221000882309F456C1812F902F9C0119014D800C
:102220005E8013C1D6015996ED91FC915A97DA015F
:10223000C90149E0B695A795979587954A95D1F735
:1022400074807A9478228FEF882E81E0982E8222F3
:102250009322772009F053C08114910409F04FC0F4
:10226000D60114964D915D916D917C911797411512
:1022700051056105710581F455968D919D910D90E3
:10228000BC91A02D0097A105B10561F1F6018483F1
:102290009583A683B78333C0CF019E012F5F3F4F45
:1022A0000E94D117882309F40CC129813A814B81FE
:1022B0005C81D6015996ED91FC915A9787898031BE
:1022C00049F4283FBFEF3B07B0E04B07B0E05B07A6
:1022D00078F008C0283FEFEF3E07EFEF4E07EFE042
:1022E0005E0730F0C6010E94AA10882341F4E9C0BD
:1022F000D60114962D933D934D935C93179780E0F0
:1023000092E08819990952018415950508F45C0139
:10231000D6015996ED91FC915A971496ED90FD9047
:102320000D911C9117978EEF9FEFAFEFBFEFE80E67
:10233000F91E0A1F1B1F058404C0EE0CFF1C001FA2
:10234000111F0A94D2F786859785A089B189E80E76
:10235000F91E0A1F1B1FE70CF11C011D111D90E047
:10236000A91692E0B90639F580914B0790914C0778
:10237000A0914D07B0914E078E159F05A007B1079C
:1023800071F4109251098FEF9FEFAFEFBFEF809381
:102390004B0790934C07A0934D07B0934E07809145
:1023A0004F0990915009B801A70191010E94B40A08
:1023B0008823B9F586C08114910419F5D6011896C1
:1023C0002D913D914D915C911B9751968D919D91D1
:1023D0000D90BC91A02D281739074A075B0788F09C
:1023E0000E946C15882309F46CC081E08093510928
:1023F000E0924B07F0924C0700934D0710934E0765
:1024000008C0C801B70141E00E94A715882309F45C
:1024100058C09401215B384FC901B101A5010E9448
:102420006044950140E050E0F60180859185A285E9
:10243000B385820F931FA41FB51F80879187A28742
:10244000B3872A0C3B1C4A185B08D60118962D91BD
:102450003D914D915C911B974114510409F0E2CEDE
:1024600051968D919D910D90BC91A02D821793074F
:10247000A407B50748F4F601218B328B438B548BAC
:1024800081818068818311C08091490790914A07BA
:10249000892B59F08D819E81892B39F0D6011196B7
:1024A0008C911197806811968C93F601818183FF3E
:1024B00005C0C6010E94460D882319F04D815E813A
:1024C00005C081E0D6018C934FEF5FEFCA012696DD
:1024D0000FB6F894DEBF0FBECDBFCF91DF911F9135
:1024E0000F91FF90EF90DF90CF90BF90AF909F90B3
:1024F0008F907F905F904F903F902F90089582FD36
:1025000076CE89CEDF92EF92FF920F931F93CF93F7
:10251000DF93EC0189899A89AB89BC89805E9F4FE2
:10252000AF41B04008F071C0CE010E94AA108823CC
:1025300009F46BC00E946C15882309F466C0E98D0C
:10254000FA8DEC80FD800E811F818EEF9FEFAFEF43
:10255000BFEFE80EF91E0A1F1B1F058404C0EE0C16
:10256000FF1C001F111F0A94D2F786859785A0894A
:10257000B189E80EF91E0A1F1B1F81E080935109E3
:10258000E0924B07F0924C0700934D0710934E07D3
:1025900080E092E0EFE4F7E0DF019C011D92215022
:1025A0003040E1F7DD24D39411C0B801A7014D0DEF
:1025B000511D611D711D80914F09909150092FE4AB
:1025C00037E00E94B40A882301F1D394E98DFA8D93
:1025D0008481D81650F320E032E040E050E00584DA
:1025E00004C0220F331F441F551F0A94D2F7898954
:1025F0009A89AB89BC89820F931FA41FB51F898B51
:102600009A8BAB8BBC8B81E001C080E0DF91CF91D6
:102610001F910F91FF90EF90DF9008958F929F92FE
:10262000AF92BF92CF92DF92EF92FF920F931F93E0
:10263000CF93DF936C01EB01942E852EA22E898D12
:102640009A8DD6015A969C938E935997CB0140E070
:1026500050E060E070E00E947C0CBB2438C0CE01EA
:102660000E94930FFC01009709F493C055E0169562
:102670000795F794E7945A95D1F71E2D1F70808126
:10268000882311F0853EC9F4BB2099F420914B07B3
:1026900030914C0740914D0750914E07D6011C9642
:1026A0002D933D934D935C931F9750961C93BB24A1
:1026B000B3948081882359F418C0892D982DBF01C7
:1026C0004BE050E00E945344009709F470C0E88446
:1026D000F9840A851B8589899A89AB89BC89E816A2
:1026E000F9060A071B0708F4BACFA6FE52C0A1FEDE
:1026F00050C0BB2051F0F6011089C60161E00E9474
:10270000250DEC01009769F444C08B81823009F4F7
:1027100040C0CE010E9482128823D9F110E0CFE49C
:10272000D7E080E2DE011D928A95E9F7DE01292DCE
:10273000382DC901FC018BE001900D928150E1F729
:10274000E0914907F0914A07309739F0BE01625F86
:102750007F4FCE014096199508C081E298E2998B8F
:10276000888B80E098E09F878E87888999899B8BEA
:102770008A8B998F888F8E859F859F8B8E8B0E94E9
:102780006C15882331F0C601612F4A2D0E9421105B
:1027900001C080E0DF91CF911F910F91FF90EF90EA
:1027A000DF90CF90BF90AF909F908F900895A7FE3D
:1027B000EACFEFCF2F923F924F925F926F927F922C
:1027C0008F929F92AF92BF92CF92DF92EF92FF9241
:1027D0000F931F93DF93CF93CDB7DEB7C654D0408E
:1027E0000FB6F894DEBF0FBECDBF3C016B01DE011A
:1027F000AE5BBF4F11965C934E9325962FAF2597F6
:102800001C861F861FA21AA66115710509F480C0D7
:10281000FC018381882309F07BC0FA0180818F321B
:10282000F1F08601ECE0EE2EF12CEC0EFD1E72E4D0
:10283000A72EB12CAC0EBD1E4E010894811C911C1C
:102840002796FFAEEEAE279767E2262E312C2C0E90
:102850003D1E270124C01196B183A08301C0FD0154
:10286000A081B1818C918F32B1F3D60113968C91F6
:10287000139782508230A8F28E01095D1F4F59963E
:102880006D917C915A97C8010E94CE0F882351F612
:102890003FC0342D252D8701832F922F7C01F50118
:1028A00080819181B401A5010E942E0C882329F416
:1028B0002FC03196D501ED93FC93D501ED91FC919C
:1028C00080818F32B1F38823C9F0C701B801A40118
:1028D00021E00E940E138823D9F00C151D0519F074
:1028E000C8010E94960D2796EEADFFAD2797EE1614
:1028F000FF0679F6C101322D292FCDCFC301B801D2
:10290000A40125962FAD25970E940E13182F01C004
:1029100010E0CE0187960E94A00DCE010C960E9479
:10292000A00D812FCA5BDF4F0FB6F894DEBF0FBE3C
:10293000CDBFCF91DF911F910F91FF90EF90DF906E
:10294000CF90BF90AF909F908F907F906F905F904F
:102950004F903F902F900895FB01242F60914707DF
:1029600070914807AF010E94DA130895FF920F9308
:102970001F93DF93CF93CDB7DEB76B970FB6F89465
:10298000DEBF0FBECDBF9C01AB0119821C828E0140
:102990000F5F1F4FC801B90121E00E94DA13F82E22
:1029A000C8010E94A00D8F2D6B960FB6F894DEBF64
:1029B0000FBECDBFCF91DF911F910F91FF90089572
:1029C00083960E94B61408950F931F93CF93DF93BD
:1029D000EC01662331F0A396D0934807C0934707D4
:1029E000A3978E010D5D1F4FC8010E94960D25967D
:1029F000C801BE010E94CE0FDF91CF911F910F91B0
:102A000008950F931F93CF93DF93EC010E94800BE7
:102A10008823C9F08E010B5F1F4FC801BE0141E042
:102A20000E94E315882339F4C801BE0140E00E94EA
:102A3000E315882341F0CE0161E00E94E41488236D
:102A400019F081E001C080E0DF91CF911F910F91DB
:102A50000895CF93DF93EC0188E397E0998388830F
:102A60008D81882321F0CE0102960E94960DCE0121
:102A70000E945539DF91CF910895FC0188E397E0DA
:102A8000918380838581882321F0CF0102960E9463
:102A9000960D0895DB010D900020E9F71197A61B14
:102AA000B70B0296AD010E94D1100895DF93CF932A
:102AB0000F92CDB7DEB769830296BE016F5F7F4F7D
:102AC00041E050E00E94D1100F90CF91DF91089526
:102AD00002960E94D110089580915109882399F19E
:102AE00040914B0750914C0760914D0770914E07F4
:102AF00080914F09909150092FE437E00E94B40A69
:102B0000882319F140915209509153096091540959
:102B100070915509411551056105710591F080913C
:102B20004F09909150092FE437E00E94B40A88239E
:102B300061F01092520910925309109254091092A8
:102B400055091092510981E0089580E00895DF92BF
:102B5000EF92FF920F931F937B018C01D42E8091F3
:102B60004B0790914C07A0914D07B0914E078E15E1
:102B70009F05A007B107C1F00E946C158823E1F002
:102B800080914F0990915009B801A7012FE437E0D7
:102B90000E944C0B882381F0E0924B07F0924C0787
:102BA00000934D0710934E07DD2011F481E005C01E
:102BB00081E08093510901C080E01F910F91FF9047
:102BC000EF90DF9008958F929F92AF92BF92CF9235
:102BD000DF92EF92FF920F931F93CF93DF936C01DD
:102BE000142F7093500960934F09FC01178A82E0FB
:102BF00090E0A0E0B0E080839183A283B383109241
:102C000051091092520910925309109254091092CE
:102C100055098FEF9FEFAFEFBFEF80934B07909376
:102C20004C07A0934D07B0934E07442321F488240A
:102C30009924540140C0453008F01EC160E070E0A6
:102C400080E090E040E00E94A715882309F414C1B9
:102C5000C12FD0E02197FE0174E0EE0FFF1F7A959F
:102C6000E1F7E15BF84FE254FE4F8081EE5BF1400B
:102C700090E08F779070892B09F0FEC0E653FE4FED
:102C800080819181A281B38184369105A105B1052E
:102C900008F4F2C064E0CC0FDD1F6A95E1F7CB5E6B
:102CA000D64F88809980AA80BB8081149104A104AA
:102CB000B10409F4E1C0C501B40140E00E94A715C8
:102CC000882309F4D9C080915A0790915B078050FE
:102CD000924009F0D1C020915F07222309F4CCC0B3
:102CE00080915D0790915E07892B09F4C5C08091A2
:102CF0005C07882309F4C0C0F601228B80915C0731
:102D00008483158661E070E007C04F5FF601458758
:102D10004150483008F0B0C0F6014585848190E00C
:102D20009B01042E02C0220F331F0A94E2F7821780
:102D3000930759F7209165073091660721153105F2
:102D400019F040E050E008C02091730730917407FB
:102D50004091750750917607F601258336834783A6
:102D60005087E0905D07F0905E0700E010E0E80C0F
:102D7000F91C0A1D1B1DE38AF48A058B168B8091B2
:102D8000600790916107918F808F60915F0770E07D
:102D900080E090E00E9495426E0D7F1D801F911F84
:102DA000F601628F738F848F958F20916007309129
:102DB000610755E0220F331F5A95E1F721503E4F2E
:102DC000232F3327269540E050E0260F371F481F5A
:102DD000591F26873787408B518B809162079091CE
:102DE0006307009719F0A0E0B0E008C080916F077A
:102DF00090917007A0917107B091720785017401DD
:102E0000E21AF30A040B150BA8019701280F391FCA
:102E10004A1F5B1FF601058404C0569547953795F8
:102E200027950A94D2F72187328743875487253F15
:102E3000FFE03F07F0E04F07F0E05F0720F48CE091
:102E4000F601878B19C0255F3F4F4040504018F472
:102E500080E1F6010EC080917B0790917C07A091E4
:102E60007D07B0917E07F601828F938FA48FB58F77
:102E700080E2878B81E001C080E0DF91CF911F91DC
:102E80000F91FF90EF90DF90CF90BF90AF909F9009
:102E90008F9008956F927F928F929F92AF92BF9280
:102EA000CF92DF92EF92FF920F931F93CF93DF9316
:102EB000EC015A016B0138014901423051056105AD
:102EC000710508F45EC089859A85AB85BC8501963D
:102ED000A11DB11D84179507A607B70708F451C0B7
:102EE0008F89803129F4E52EF62E072F11270CC08B
:102EF000803209F046C07A018B0187E0169507956C
:102F0000F794E7948A95D1F78B899C89AD89BE891E
:102F1000E80EF91E0A1F1B1FC801B70141E00E94FD
:102F2000A715882371F18F89803149F4F501F0707C
:102F3000EE0FFF1FE15BF84F718260820DC0F5015B
:102F4000EF77F070EE0FFF1FEE0FFF1FE15BF84F02
:102F500060827182828293828A89823080F08D8140
:102F60009E81AF81B885E80EF91E0A1F1B1FE092F3
:102F70005209F0925309009354091093550981E0C6
:102F800001C080E0DF91CF911F910F91FF90EF90F2
:102F9000DF90CF90BF90AF909F908F907F906F9079
:102FA0000895CF92DF92EF92FF920F931F93CF93EA
:102FB000DF93EC017A018B01690189859A85AB85E4
:102FC000BC850196A11DB11D84179507A607B707FB
:102FD00008F453C08F89803129F45527412F302FB1
:102FE0002F2D0CC0803209F048C09A01AB0167E078
:102FF00056954795379527956A95D1F78B899C8982
:10300000AD89BE89280F391F4A1F5B1F80914B076E
:1030100090914C07A0914D07B0914E0728173907A2
:103020004A075B0739F0CA01B90140E00E94A715C1
:10303000882319F18F89803159F4F701F070EE0F70
:10304000FF1FE15BF84F80819181A0E0B0E00EC0EE
:10305000F701EF77F070EE0FFF1FEE0FFF1FE15B40
:10306000F84F80819181A281B381BF70F601808386
:103070009183A283B38381E001C080E0DF91CF918F
:103080001F910F91FF90EF90DF90CF900895AF9236
:10309000BF92CF92DF92EF92FF920F931F93DF9335
:1030A000CF9300D00F92CDB7DEB76C017A018B01C0
:1030B00082E090E0A0E0B0E0F60180839183A283FB
:1030C000B3835E010894A11CB11CC601B801A7011D
:1030D00095010E94D117882341F1C601B801A701CB
:1030E00000E010E020E030E00E944A178823E9F079
:1030F000E980FA800B811C81F6018789803151F4C7
:10310000F8EFEF16FFEFFF06F0E00F07F0E01F0704
:10311000E0F209C088EFE8168FEFF8068FEF080796
:103120008FE0180790F281E001C080E00F900F90CF
:103130000F900F90CF91DF911F910F91FF90EF9023
:10314000DF90CF90BF90AF9008954F925F926F92B3
:103150007F928F929F92AF92BF92CF92DF92EF9227
:10316000FF920F931F93DF93CF9300D00F92CDB7B1
:10317000DEB76C0149835A836B837C833901EE246B
:10318000FF2487012E010894411C511C812CE2E090
:103190009E2EA12CB12C49815A816B817C81C60164
:1031A00092010E94D117882339F1D501C401F6019B
:1031B000058404C0880F991FAA1FBB1F0A94D2F769
:1031C000E80EF91E0A1F1B1F29813A814B815C8181
:1031D0008789803131F4285F3F4F40405040D8F21A
:1031E00005C0285F3F4F4F4F5F40A8F2F301E082D8
:1031F000F1820283138381E00F900F900F900F9064
:10320000CF91DF911F910F91FF90EF90DF90CF90C2
:10321000BF90AF909F908F907F906F905F904F90F6
:1032200008952F923F924F925F926F927F928F926A
:103230009F92AF92BF92CF92DF92EF92FF920F9345
:103240001F93DF93CF93CDB7DEB72F970FB6F894C8
:10325000DEBF0FBECDBF1C014A875B876C877D87B1
:103260003F872E87DC0119968D919D910D90BC9121
:10327000A02D0196A11DB11D8E839F83A887B987BC
:10328000F901008111812281338101151105210588
:10329000310549F0480159010894811C911CA11C79
:1032A000B11C1D8210C0D1018D909D90AD90BC903D
:1032B0001D828A859B85AC85BD850197A105B105D9
:1032C00011F491E09D837501640144245524320179
:1032D0008E010F5F1F4FF10181859285A385B48513
:1032E000481659066A067B0608F090C08E819F81B9
:1032F000A885B9858C159D05AE05BF0550F4A2E0E3
:103300008A2E912CA12CB12CF2E0CF2ED12CE12CC5
:10331000F12CC101B701A60198010E94D1178823A1
:1033200009F474C089819A81AB81BC81A70196019F
:103330002F5F3F4F4F4F5F4F0097A105B10519F029
:1033400049015A010DC0281939094A095B098A85C2
:103350009B85AC85BD85281739074A075B0759F05F
:103360000894411C511C611C711C0894C11CD11C87
:10337000E11CF11CB0CFC101A601B7010FEF1FEF97
:103380002FEF3FE00E944A17882399F43FC026019F
:10339000370108944108510861087108C101B3015F
:1033A000A201970186010E944A17882379F17301CF
:1033B00062018C149D04AE04BF0448F3AE85BF8542
:1033C0004D915D916D917C9141155105610571059E
:1033D00039F0C101950184010E944A178823B1F098
:1033E000EE85FF8580829182A282B382FD81FF23D8
:1033F00059F00894811C911CA11CB11CD1018D9223
:103400009D92AD92BC92139781E001C080E02F960F
:103410000FB6F894DEBF0FBECDBFCF91DF911F91E5
:103420000F91FF90EF90DF90CF90BF90AF909F9063
:103430008F907F906F905F904F903F902F90089566
:10344000FC0113861586148687E090E0128631977A
:10345000009711F00197FACF0895DC0180E00BC0CE
:10346000E82FF0E08D9190E0E827F927EC50FF4F2E
:10347000E49161508E2F662399F70895DF92EF92C1
:10348000FF920F931F93FC01E08001811281F89459
:10349000F80181818E2981838281DE2CD0948D2157
:1034A000828383E090E00E941C40F80181818D219D
:1034B00081838AE090E00E941C40F80100817894AA
:1034C00085E390E00E941C4080E010E0FF240E2184
:1034D0001F21012B09F081E01F910F91FF90EF90C8
:1034E000DF900895EF92FF920F931F93CF93DF9396
:1034F0007C0101E010E0C0E0D0E0C7010E943E1A6C
:103500008111102B000F2196C830D105B1F7812F02
:10351000DF91CF911F910F91FF90EF9008951F932E
:10352000CF93DF93FC011081C181D281912F9095BF
:1035300060FF12C0F8948A8189238A838981812B54
:1035400089838AE090E00E941C408A81812B8A83D3
:10355000789487E390E011C0F8948A8189238A8364
:103560008981812B898381E490E00E941C408A81BB
:10357000812B8A83789485E090E00E941C40DF9143
:10358000CF911F910895CF92DF92EF92FF920F9308
:103590001F93CF93DF938C01E42EFF24F394C0E0BC
:1035A000D0E0C62EDD2460E08F2D90E08C219D219F
:1035B000892B09F061E0C8010E948F1AFF0C219647
:1035C000C830D10581F7EE20A9F4F894D8011196FE
:1035D000ED91FC91129791818C9180959823918324
:1035E0001196ED91FC91129792818C918095982380
:1035F00092837894DF91CF911F910F91FF90EF907C
:10360000DF90CF9008956CEC40E00E94C31A0895BB
:10361000EF92FF920F931F93CF93DF938C017B0167
:1036200065E540E00E94C31AC0E0D0E0F701EC0F6E
:10363000FD1FC801608140E00E94C31A2196C83076
:10364000D105A1F7DF91CF911F910F91FF90EF90DE
:103650000895DF92EF92FF920F931F93CF93DF9322
:10366000FC010081C181D281F8948981D02ED0944F
:103670008D21898378941DE7E02EFF24115059F1A4
:1036800082E090E00E941C40888190E08E219F2182
:10369000892BA1F3F8948A818D218A838981802BDB
:1036A0008983789484EF91E00E941C40F89489818A
:1036B0008D21898380E590E00E941C40888110E084
:1036C00090E0E822F922EF2809F411E0789484EAE6
:1036D00091E00E941C40812FDF91CF911F910F91AB
:1036E000FF90EF90DF900895AF92BF92DF92EF923C
:1036F000FF920F931F93CF93DF93EC015B018D85B6
:10370000882309F061C0CE010E94291B882329F477
:103710001B861D861C8690E06BC0CE0160EF40E0EA
:103720000E94C31A01E0DD24EE24FF24F394CE01AD
:103730000E943E1A182FCE010E943E1A113019F431
:103740008130E1F439C0181709F58B85081770F43A
:1037500060E0FE01EE0DF11D838190E02F2D30E041
:1037600082239323181619064CF003C060E0081753
:1037700029F0093008F04CC00C874AC0FE01EE0D5C
:10378000F11D83818F29838361E009C0612FFE01D0
:10379000EE0DF11D9F2D9095838189238383CE01AA
:1037A0000E948F1A0F5FFF0C19F4E394FF24F39427
:1037B00087E08E1508F0BBCF013430F0DB86DD20CA
:1037C00011F581E08D871FC01B861D861C8690E049
:1037D000DE0120E030E0F501E20FF31F13968C913B
:1037E000139780832F5F3F4F11962830310599F74B
:1037F000892FDF91CF911F910F91FF90EF90DF9074
:10380000BF90AF9008958B818823F1F291E0E0CFD3
:10381000D02EBDCFFF920F931F938C01F62E862FD3
:1038200060E00E9497418F2D90E0FC01E857FD4F2A
:10383000E491D801EC938E5B9D4FFC016491E62FDF
:10384000F0E0EE0FFF1FE85DFD4F85919491129619
:103850009C938E931197C8010E94201A1F910F917B
:10386000FF900895FC0188E397E091838083089599
:10387000FC0188E397E091838083CF010E94553952
:1038800008950F931F938C01FC01848160E00E94D6
:10389000304281E090E00E941C40F801848161E0A8
:1038A0000E94304281E090E00E941C40F801848137
:1038B00060E00E94304284E690E00E941C401F912C
:1038C0000F910895CF92DF92EF92FF920F931F9383
:1038D000CF93DF93D82EC92E282F392FC9018C0101
:1038E000C0E0D0E0E62EFF24F801858161E00E946F
:1038F0009741B7010C2E02C0759567950A94E2F7BF
:103900006170F80185810E94304221960F5F1F4F40
:10391000C830D10549F78D2D9C2D0E94411CDF91A7
:10392000CF911F910F91FF90EF90DF90CF9008956E
:10393000CF92DF92EF92FF920F931F93CF93DF937B
:10394000D82EC92E282F392FC9018C01C0E0D0E014
:10395000E62EFF24F801858161E00E949741B701BE
:103960000C2E02C0759567950A94E2F76170F80114
:1039700085810E94304221960F5F1F4FC430D105D0
:1039800049F78D2D9C2D0E94411CDF91CF911F91F5
:103990000F91FF90EF90DF90CF9008951F93CF93FA
:1039A000DF93EC01162F8A81642F0E9430428B81B5
:1039B0008F3F19F060E00E9430428D8584FF05C082
:1039C000CE01612F0E94621C0EC0612F70E084E066
:1039D000759567958A95E1F7CE010E94981CCE01F6
:1039E000612F0E94981CDF91CF911F91089541E0B3
:1039F0000E94CE1C089540E00E94CE1C0895FC0158
:103A00006685862F846086876C60CF010E94FB1CD0
:103A10000895DF93CF93CDB7DEB728970FB6F8940C
:103A2000DEBF0FBECDBF9C01FE013196AEEFB6E00A
:103A300088E00D9001928150E1F7F90181898417A6
:103A400010F4482F4150E42FF0E0EE0FFF1FEC0F71
:103A5000FD1F8181680F6068C9010E94FB1C2896C8
:103A60000FB6F894DEBF0FBECDBFCF91DF910895A2
:103A700061E00E94FB1C80ED97E00E941C400895CD
:103A8000CF93DF93EC01423018F08D8588608D87ED
:103A9000498B1A8A222329F0413019F48D858460DC
:103AA0008D8780E593EC0E941C408A8160E00E9433
:103AB00030428C8160E00E9430428B818F3F19F050
:103AC00060E00E9430426D8564FD1DC0CE0163E060
:103AD0000E94981C84E991E10E941C40CE0163E0A1
:103AE0000E94981C84E991E10E941C40CE0163E091
:103AF0000E94981C86E990E00E941C40CE0162E082
:103B00000E94981C16C06062CE010E94FB1C84E9D2
:103B100091E10E941C406D856062CE010E94FB1CF9
:103B200086E990E00E941C406D856062CE010E9493
:103B3000FB1C6D856062CE010E94FB1C84E08E87B9
:103B4000CE010E94FF1CCE010E94381D82E08F87AB
:103B5000CE0166E00E94FB1CDF91CF9108956F9229
:103B60007F928F92AF92CF92EF920F931F93DF933A
:103B7000CF93CDB7DEB73C01162F842FF3014283DC
:103B800023830483E582C682A78280869E859187EF
:103B90009F859287988993879989948761E00E948D
:103BA0009741F30183818F3F19F061E00E949741B3
:103BB000F301848161E00E949741112319F0F30120
:103BC000158603C080E1F3018587C30160E141E010
:103BD00020E00E94401DCF91DF911F910F91EF9047
:103BE000CF90AF908F907F906F9008958F92AF920B
:103BF000CF92EF920F931F93CF93DF93DC01362F79
:103C0000542F722F102FAE2C8C2C84EF96E011962F
:103C10009C938E9300D00F92EDB7FEB73196CDB73F
:103C2000DEB71982118212821382CD0161E0432F27
:103C30002FEF052FE72EC12E0E94AF1D0F900F9082
:103C40000F900F90DF91CF911F910F91EF90CF9038
:103C5000AF908F900895FC0186EF9EE1928B818B4F
:103C6000768365831482108289E090E09283818359
:103C700081E083830895FC01638308956F927F92AE
:103C80008F929F92AF92BF92CF92DF92EF92FF926C
:103C90000F931F93CF93DF93FB01EA01998180E09B
:103CA000288130E0282B392BE081E23231F0E832F4
:103CB00021F0E03109F081C04DC04C814F3329F132
:103CC000403420F44F3109F078C02FC04F3579F0DF
:103CD0004F3709F072C0B901882777FD8095982F7A
:103CE0000E94F80520E030E040E85DE32EC0359505
:103CF0002795B901882777FD8095982F0E94F805B0
:103D000020E030E040E05EE320C035952795359512
:103D10002795B901882777FD8095982F0E94F8058F
:103D200020E030E040E85EE310C093E03595279551
:103D30009A95E1F7B901882777FD8095982F0E9421
:103D4000F80520E030E040E05FE30E949203E62FB8
:103D5000692F37C0EF8035952795B901882777FD02
:103D60008095982F0E94F80520E030E040E85EE35F
:103D70000E9434033B014C016E2D70E02E81621BCA
:103D80007109882777FD8095982F0E94F8055B01BF
:103D90006C01FF2400E010E0C801B7010E94AA06F0
:103DA0009B01AC01C601B5010E948C049B01AC01D2
:103DB000C401B3010E946503CACFE0E070E888E85F
:103DC00063EC2E2F372F482F562FB901CA01DF91F0
:103DD000CF911F910F91FF90EF90DF90CF90BF9008
:103DE000AF909F908F907F906F9008950895EF927D
:103DF000FF920F931F938C017B01FC0185819681BB
:103E00000E94291BF80185819681B7010E94081B39
:103E1000F8018581968164EB40E00E94C31AF801A5
:103E2000858196810E943E1AF82EF801858196813F
:103E30000E94291B80E0FF2009F481E01F910F916F
:103E4000FF90EF900895CF93DF93EC018D819E81D9
:103E50000E94291B8D819E810E94031B8D819E8162
:103E600064E448810E94C31A8B81882321F149812F
:103E70005A814930510551F049305105B4F04A306A
:103E8000510549F04B30510581F40AC06EE570E0F0
:103E900080E090E00EC06CEB70E080E090E009C044
:103EA00067E771E080E090E004C06EEE72E080E0D1
:103EB00090E00E94F63FDF91CF910895CF92DF927C
:103EC000EF92FF920F931F938C016B017A01FC011B
:103ED000858196810E94291BF80185819681B60112
:103EE0000E94081BF801858196816EEB40E00E94DC
:103EF000C31AF801858196810E94721AF7018083A6
:103F0000F801858196810E94721AF7018183F80178
:103F1000858196810E94721AF7018283F80185815A
:103F200096810E94721AF7018383F8018581968138
:103F30000E94721AF7018483F801858196810E949C
:103F4000721AF7018583F801858196810E94721AA1
:103F5000F7018683F801858196810E94721AF70124
:103F60008783F801858196810E94721AF701808704
:103F7000F801858196810E94291B1F910F91FF9066
:103F8000EF90DF90CF9008950F931F938A010E94C6
:103F90005E1FC80168E00E942D1A20E0F80190859C
:103FA000891709F421E0822F1F910F910895CF9274
:103FB000DF92EF92FF920F931F93DF93CF93CDB7D2
:103FC000DEB729970FB6F894DEBF0FBECDBF8C01C8
:103FD0007B016E010894C11CD11CA6010E94C41F64
:103FE000882329F460E070E08EEF92EC05C0C801F0
:103FF000B701A6010E943E1E29960FB6F894DEBFB7
:104000000FBECDBFCF91DF911F910F91FF90EF9029
:10401000DF90CF900895DF93CF93CDB7DEB7299788
:104020000FB6F894DEBF0FBECDBF9C01FB018081AF
:104030008031D9F0C901AE014F5F5F4F0E94C41FAC
:104040008823A9F08D818F3371F0803418F48F317B
:1040500071F40BC08F3519F08F3749F402C08BE033
:1040600007C08CE005C08AE003C089E001C080E0A1
:1040700029960FB6F894DEBF0FBECDBFCF91DF916A
:1040800008950F931F938B01CB0167E00E942D1AB7
:1040900020E0F8019781891709F421E0822F1F9110
:1040A0000F910895EF92FF920F931F93CF93DF9399
:1040B000EC017B01042F8D819E810E94201A10E06B
:1040C00007C0CE01B7010E9441208823A9F00AC091
:1040D0008D819E81B7010E94741B882329F01017DF
:1040E00059F4EFCF81E001C080E0DF91CF911F91C3
:1040F0000F91FF90EF9008951F5F0117A8F3E8CF8D
:104100009F92AF92BF92CF92DF92EF92FF920F9366
:104110001F93DF93CF93CDB7DEB761970FB6F894B7
:10412000DEBF0FBECDBF7C01FC01858196810E9460
:10413000201AF70114826E010894C11CD11C79E089
:10414000A72EB12CAC0EBD1E9924939431C0C7018B
:10415000B6010E944120882359F1F701808188230C
:1041600041F4C701B6010E94F71E882311F0F70140
:104170009082C701B601A5010E945E1FF70101816F
:104180001281C701B6010E940B2090E080179107B1
:1041900024F4F7018181928105C0C701B6010E9414
:1041A0000B2090E0F7018183928384818F5F848369
:1041B000F70185819681B6010E94741B882339F628
:1041C00061960FB6F894DEBF0FBECDBFCF91DF91E1
:1041D0001F910F91FF90EF90DF90CF90BF90AF9025
:1041E0009F900895CF93DF93BC01EC01C058DF4F3F
:1041F0004881442349F0FC01EF57FF4F80819181B2
:1042000050E00E9468151882DF91CF9108951F93A6
:10421000CF93DF93EC01162FC058DF4F8881C05831
:10422000D040803819F4CE010E94F220FE01E058FF
:10423000FF4F8081C80FD11D18838F5F8083DF916E
:10424000CF911F9108950F931F93CF93DF938C010C
:10425000EB0104C02196C8010E94072168816623F2
:10426000C9F7DF91CF911F910F9108951F93CF93BD
:10427000DF93EC01162F643650F0862F64E60E941F
:10428000B442682F605DCE010E94072102C06A30EF
:1042900058F0812F6AE00E94B4420E94B442692F14
:1042A000605DCE010E940721812F6AE00E94B44226
:1042B000692F605DCE010E940721DF91CF911F9190
:1042C0000895DF92EF92FF920F931F93CF93DF93A6
:1042D0008C017B016F3F710509F020F4C8010E9439
:1042E000362144C0E3E0683E7E0718F4F3E0DF2E99
:1042F00009C0F7E260317F0718F0E5E0DE2E02C06A
:1043000074E0D72E00581F4FF801808100581040EC
:1043100090E08D0D911D8038910518F0C8010E9424
:10432000F220F801E058FF4F80818D0D8083C82F67
:10433000D0E02197C00FD11FC7016AE070E00E9452
:10434000C042FB014E2D405DCB01880F991F9F019C
:1043500053E0220F331F5A95E1F7820F931F481B3A
:1043600048832197309711F07F01E6CFDF91CF91FD
:104370001F910F91FF90EF90DF9008950F931F937F
:10438000CF93DF938C01EB0177FF06C06DE20E94B3
:104390000721D095C195DF4FC801BE010E94612160
:1043A000DF91CF911F910F9108958F929F92AF92BD
:1043B000BF92CF92DF92EF92FF921F93CF93DF9342
:1043C0007C014A015B01403020E0520721E0620796
:1043D00020E0720720F4BA010E94612170C04038C9
:1043E00036E9530738E9630730E07307B0F4403A21
:1043F00086E8580781E0680780E0780710F415E048
:1044000021C0403492E459079FE0690790E07907A2
:1044100010F017E017C016E015C04030E1EE5E075F
:10442000E5EF6E07E5E07E0710F418E00BC04030C2
:10443000FAEC5F07FAE96F07FBE37F0710F01AE079
:1044400001C019E020E830E0E20EF31EF7018081A0
:1044500020E83FEFE20EF31E90E0810F911D8038BF
:10446000910518F0C7010E94F220F701E058FF4FB4
:104470008081810F8083C82FD0E02197CE0DDF1D72
:10448000C501B4012AE030E040E050E00E94D4428F
:1044900069017A01182D105DC701B6012AE030E0EC
:1044A00040E050E00E949542161B18832197C114EA
:1044B000D104E104F10419F046015701E1CFDF9185
:1044C000CF911F91FF90EF90DF90CF90BF90AF9072
:1044D0009F908F900895EF92FF920F931F93CF9329
:1044E000DF93EC017A018B0177FF0BC06DE20E9434
:1044F000072110950095F094E094E11CF11C011D3A
:10450000111DCE01B801A7010E94D521DF91CF91E5
:104510001F910F91FF90EF900895F894FFCF809135
:104520004C0690914D068A30910519F481E090E097
:1045300001C0019690934D0680934C061092D80AC4
:104540001092D90A1092DA0A1092DB0A089580912B
:104550004C0690914D068130910519F48AE090E067
:1045600001C0019790934D0680934C061092D80A93
:104570001092D90A1092DA0A1092DB0A0895AF92CB
:10458000BF92CF92DF92EF92FF920F931F935B0146
:104590006C0179018A0120E030E040E050E00E94A7
:1045A000680518160CF03FC01E141F0410061106F3
:1045B000D4F5C801B7010E94F80527ED33EA48E3B6
:1045C00050E40E9492037B018C01C601B50123E3F4
:1045D00033E948E853E40E9465039B01AC01C8013C
:1045E000B7010E948C047B018C0120E030E040E0A8
:1045F00050E00E94980588234CF0C801B70120E0E4
:1046000030E040E05FE30E94650308C0C801B701E5
:1046100020E030E040E05FE30E9434030E94560651
:104620009B01AC0104C020E030E040E050E0B90163
:10463000CA011F910F91FF90EF90DF90CF90BF9034
:10464000AF900895EF92FF920F931F93CF93DF9354
:104650001092E40A1092E50A1092E60A1092E70A14
:10466000C091E80AD091E90A2091E00A3091E10A6C
:104670004091E20A5091E30A261B370B480B590B75
:10468000CA01B9010E94F8052AE939E949E95EE35E
:104690000E9492037B018C0120E030E040E050E07A
:1046A0000E94980588234CF0C801B70120E030E053
:1046B00040E05FE30E94650308C0C801B70120E045
:1046C00030E040E05FE30E9434030E945606CB01D5
:1046D0008C0F9D1F9093E90A8093E80A97FF10C002
:1046E00081E090E0A0E0B0E08093E40A9093E50AD6
:1046F000A093E60AB093E70A1092E90A1092E80A3A
:104700008091E80A9091E90A8F3F910599F094F021
:1047100082E090E0A0E0B0E08093E40A9093E50AA4
:10472000A093E60AB093E70A8FEF90E09093E90A2E
:104730008093E80ADF91CF911F910F91FF90EF9046
:1047400008952F923F924F925F926F927F928F9235
:104750009F92AF92BF92CF92DF92EF92FF920F9310
:104760001F93DF93CF93CDB7DEB76A970FB6F89458
:10477000DEBF0FBECDBF3B014C01DE011196E6E06E
:10478000F7E088E101900D928150E1F7C401B30197
:104790000E94F80520E034ED48E257E40E94C80585
:1047A000882334F494ED692E98EA792E812C912C8B
:1047B000C401B3010E94F80520E03EE044E457E460
:1047C0000E946805181634F48EE0682E84EC782E6A
:1047D000812C912CCE0101969A8F898F0F2EF0E0BB
:1047E000AF2EF0E0BF2EF0E0CF2EF0E0DF2EF02D68
:1047F00022243324E98DFA8DE080F1800281138137
:10480000442455241BC0C401B3010E94F80520E0D4
:1048100032EE43E357E40E94340320E030EE4CEDE7
:1048200054E40E948C049B01AC01C801B7010E94B2
:1048300092037B018C010894411C511C42145304C7
:1048400014F3C601B501A80197010E9465035B013D
:104850006C010894211C311C898D9A8D04969A8FC5
:10486000898F96E02916310429F6C601B50120E0AA
:1048700030E040EA50E40E9492037B018C0120E08A
:1048800030E040E050E00E94980588234CF0C801D9
:10489000B70120E030E040E05FE30E94650308C01C
:1048A000C801B70120E030E040E05FE30E9434033C
:1048B0000E9456069B01AC01CA016A960FB6F89495
:1048C000DEBF0FBECDBFCF91DF911F910F91FF9043
:1048D000EF90DF90CF90BF90AF909F908F907F90A0
:1048E0006F905F904F903F902F900895EF92FF92BE
:1048F0000F931F936091EF0A7091F00A8091F10A73
:104900009091F20A0E94F80520E030E04AE754E472
:104910000E948C047B018C0120E030E040E050E0FC
:104920000E94980588234CF0C801B70120E030E0D0
:1049300040E05FE30E94650308C0C801B70120E0C2
:1049400030E040E05FE30E9434030E9456069B0182
:10495000AC01CA011F910F91FF90EF9008956091F3
:10496000F30A7091F40A8091F50A9091F60A0E9478
:10497000F80520E030E04AE754E40E948C040E94ED
:1049800056069B01AC01CA01089524E630E040E0E0
:1049900050E00E9495420E94F80520E030E64AE689
:1049A00056EC0E948C0420E030E048EC52E40E9477
:1049B00065030E945606CB010895161617061806C1
:1049C00019067CF40E94F8052BEA37E148EB5CE31A
:1049D0000E94920323E333E343E75FE30E948C04E6
:1049E0000EC00E94F8052BEA37E148EB5CE30E9419
:1049F000920326E636E646E65FE30E949203E62F40
:104A00002E2F372F482F592FB901CA0108956F92C1
:104A10007F928F929F92AF92BF92CF92DF92EF924E
:104A2000FF920F931F93CF93DF93EC018091C60603
:104A30009091C706C817D9070CF471C08091D006B1
:104A40009091D1068C179D070CF469C0E8ECF6E054
:104A500021E030E080819181C817D90724F4F90161
:104A6000319789010AC02F5F3F4F329626303105BA
:104A700089F7E0E0F0E001E010E0EE0FFF1FDF015A
:104A8000AE52B94FED90FC90EA53F94F60807180BF
:104A9000B701882777FD8095982F0E94F8054B0174
:104AA0005C01000F111FF801EE52F94F6081718116
:104AB0006E197F09882777FD8095982F0E94F80549
:104AC0006B017C010A53194FF801608171816619ED
:104AD0007709882777FD8095982F0E94F8059B011C
:104AE000AC01C701B6010E948C047B018C01C61980
:104AF000D709BE01882777FD8095982F0E94F80579
:104B00009B01AC01C801B7010E9492039B01AC015B
:104B1000C501B4010E946503E62F692F04C0E0E0DF
:104B200070E080E060E02E2F372F482F562FB9011C
:104B3000CA01DF91CF911F910F91FF90EF90DF900D
:104B4000CF90BF90AF909F908F907F906F9008957F
:104B5000CF92DF92EF92FF920F931F93680179013A
:104B60008C01000F111F000F111FF801E25BF94FBC
:104B700080819181A281B381481B590B6A0B7B0B09
:104B8000CB01BA010E94DD24A70196010E94920385
:104B90000657194FF80120813181428153810E94CB
:104BA00065031F910F91FF90EF90DF90CF900895D4
:104BB0002F923F924F925F926F927F928F929F922D
:104BC000AF92BF92CF92DF92EF92FF920F931F931B
:104BD000DF93CF9300D00F92CDB7DEB73B014C01EE
:104BE00059016A0180E090E0B401A30196018501BA
:104BF0000E94A82569837A831C01EE24FF2481E0AA
:104C000090E09C838B838B819C81B401A3019601EE
:104C100085010E94A825162F072F582E492E29817D
:104C20003A81A1010E94C805882334F419830A83BC
:104C3000252C342CEB80FC80EB81FC813196FC83AD
:104C4000EB833F9701F7C7010F900F900F900F90E4
:104C5000CF91DF911F910F91FF90EF90DF90CF9058
:104C6000BF90AF909F908F907F906F905F904F908C
:104C70003F902F9008956F927F928F929F92AF9264
:104C8000BF92CF92DF92EF92FF920F931F9380918A
:104C9000F70A9091F80AA091F90AB091FA0A0097E0
:104CA000A105B10509F475C02091030B3091040BE7
:104CB0004091050B5091060B8091F70A9091F80AEC
:104CC000A091F90AB091FA0A281B390B6090FF0AEB
:104CD0007090000B8090010B9090020BA090FB0A4B
:104CE000B090FC0AC090FD0AD090FE0A1092F70A1C
:104CF0001092F80A1092F90A1092FA0A223031053D
:104D00000CF447C0B901882777FD8095982F0E9441
:104D1000F80520E030E04AE754E40E9492037B016A
:104D20008C01B3016A197B09882777FD8095982F3C
:104D30000E94F8059B01AC01C801B7010E948C04D8
:104D400020E030E04CE553E40E9492037B018C01AB
:104D500020E030E040E050E00E94980588234CF0CD
:104D6000C801B70120E030E040E05FE30E94650346
:104D700008C0C801B70120E030E040E05FE30E94D6
:104D800034030E945606262F822F972F9C0137FF4F
:104D900002C020E030E0C9011F910F91FF90EF9019
:104DA000DF90CF90BF90AF909F908F907F906F904B
:104DB0000895CF92EF920F938130910509F047C08B
:104DC0006F5F7F4F09F064C086E599E061E24FE1D3
:104DD00027E109E1ABE1EA2EFDE1CF2E0E94F61DAD
:104DE00081E799E063E30E940A1C8FE799E061E79D
:104DF00079E00E942B1E82E999E067E00E940A1C7C
:104E000080EA99E062E979E00E942B1E83EB99E049
:104E100066E00E940A1C81EC99E063EB79E00E9455
:104E20002B1E89E18093FB091092FE091092160A4D
:104E300010921D0A1092200A10923A0A10923D0A0E
:104E400086EE96E09093390A8093380A21C0892B28
:104E5000F9F46F5F7F4FE1F488E397E09093390AAC
:104E60008093380A80913D0A882321F08AE39AE0F2
:104E70000E94960D8091200A882321F08DE19AE00E
:104E80000E94960D88E397E0909357098093560906
:104E90000F91EF90CF90089580E090E06FEF7FEF5B
:104EA0000E94D926089581E090E06FEF7FEF0E9485
:104EB000D92608951F9310E00E94F80520E030E401
:104EC0004CE156E40E94680518160CF411E080913C
:104ED000EA0A8117D1F18091EB0A9091EC0AA09136
:104EE000ED0AB091EE0A0097A105B105A9F40E9460
:104EF000C23F0E94AA0620E030E04AE754E40E9444
:104F000065030E94BC016093EB0A7093EC0A8093E6
:104F1000ED0A9093EE0A19C00E94C23F2091EB0A5D
:104F20003091EC0A4091ED0A5091EE0A26173707AE
:104F30004807590750F41092EB0A1092EC0A1092AD
:104F4000ED0A1092EE0A1093EA0A8091EA0A81179C
:104F500041F41092EB0A1092EC0A1092ED0A1092B2
:104F6000EE0A1F9108950E94C23F2091D80A309105
:104F7000D90A4091DA0A5091DB0A26173707480709
:104F8000590710F080E008950E94C23F6C507E4F98
:104F90008F4F9F4F6093D80A7093D90A8093DA0A93
:104FA0009093DB0A81E0089585E59AE00E94F22063
:104FB0008AE39AE00E94960D08958AE060E00E94DC
:104FC000304208958AE061E00E943042089586E20E
:104FD00061E00E943042089584E260E00E94304225
:104FE000089580916D0990916E09A0916F09B0911B
:104FF00070090097A105B105C9F00E94C23F209138
:105000006D0930916E0940916F0950917009261712
:1050100037074807590750F40E94EC2710926D0992
:1050200010926E0910926F0910927009089584E22F
:1050300061E00E94304208950E94172880916D0916
:1050400090916E09A0916F09B09170090097A10528
:10505000B10571F40E94C23F6053784F8F4F9F4F4C
:1050600060936D0970936E0980936F099093700936
:10507000089588E261E00E94304208958AE260E08B
:105080000E94304208958AE261E00E943042089511
:1050900081E360E00E943042089581E361E00E9474
:1050A000304208950E94172860ED77E080E090E09C
:1050B0000E94F63F0E94EC27089584E062EC78E2BB
:1050C00041E050E00E94763D089585E30E946542EC
:1050D00020E0019709F421E0822F08950F931F9398
:1050E000CF93DF930E94C23F2091690930916A09F2
:1050F00040916B0950916C092617370748075907EB
:1051000018F0C0E0D0E038C083E20E9465428C0114
:1051100085E20E946542892B19F4C2E0D0E006C006
:10512000C0E0D0E0012B11F4C1E0D0E087E20E94A2
:105130006542892B11F4C3E0D0E089E20E94654208
:10514000892B11F4C4E0D0E08BE20E946542892BE8
:1051500019F4C5E0D0E002C0209771F00E94C23F70
:10516000645D7E4F8F4F9F4F6093690970936A090A
:1051700080936B0990936C09CE01DF91CF911F91C1
:105180000F91089583E10E946542892B51F40E949A
:10519000D03F6093070B7093080B8093090B90939B
:1051A0000A0B83E10E946542019709F06CC080916F
:1051B000070B9091080BA091090BB0910A0B009777
:1051C000A105B10509F45FC00E94D03F2091070BF3
:1051D0003091080B4091090B50910A0B621B730B25
:1051E000840B950B695B7B408040904008F44BC07A
:1051F0001092070B1092080B1092090B10920A0BD9
:105200008091030B9091040BA091050BB091060BBC
:105210000196A11DB11D8093030B9093040BA093E5
:10522000050BB093060B8091F70A9091F80AA091B4
:10523000F90AB091FA0A0097A105B105D1F480915D
:10524000030B9091040BA091050BB091060B80937A
:10525000F70A9093F80AA093F90AB093FA0A0E9409
:10526000C23F6093FB0A7093FC0A8093FD0A9093FF
:10527000FE0A0E94C23F6093FF0A7093000B809366
:10528000010B9093020B089582E497E00E94DA09E3
:1052900008950F931F936093F30A7093F40A809319
:1052A000F50A9093F60A6093EF0A7093F00A8093E0
:1052B000F10A9093F20A02E417E0C80140E157E2D4
:1052C00060E070E00E94B209C8016BE57BE22FEF5D
:1052D0003FEF4FEF5FEF0E94BA091F910F910895C2
:1052E0001F938AEF99E060E048E00E94011588234F
:1052F00019F481E090E03EC08EEE99E060E072E04B
:105300000E94694410E0812F64E60E94B442805DEF
:105310008093F209812F0E94B442892F6AE00E9493
:10532000B442805D8093F309812F0E94B442905D66
:105330009093F4098AEF99E06EEE79E00E94E01410
:105340008823A1F48AE39AE06EEE79E042EC0E94B1
:10535000AC1488E39AE09093D70A8093D60A10920F
:10536000D50A80913D0A882359F402C01F5FCBCF34
:1053700082E090E09093ED098093EC0980E005C015
:105380001092ED091092EC0981E01F9108950F939E
:105390001F930FE719E0C8010E948020C80160E058
:1053A0000E943B1EC80164EE79E040E00E9452205A
:1053B00000EA19E0C8010E948020C80160E00E9454
:1053C0003B1EC80164ED79E040E00E94522001ECF0
:1053D00019E0C8010E948020C80160E00E943B1EC5
:1053E000C8016CED79E040E00E9452201F910F91BE
:1053F000089581EC99E06CED79E00E94D71F089543
:1054000080EA99E064ED79E00E94D71F08958FE764
:1054100099E064EE79E00E94D71F089581EC99E04D
:105420000E94231F089580EA99E00E94231F089597
:105430008FE799E00E94231F089588E30E94884027
:10544000AA2797FDA095BA2FBC01CD010E94F805AF
:105450002FE134E746EA51E40E9492030E94560687
:105460009B01AC01CA0108958EE30E9488409C0113
:1054700081E02A3F38072CF420E030E040E050E0A3
:105480001BC0B901882777FD8095982F2CE136E065
:1054900040E050E00E949542685573418C40904036
:1054A0000E94F80520E030E040E05FE30E946503E1
:1054B0000E9456069B01AC01B901CA01089581E41E
:1054C0000E9488409C01009729F420E030E040E0F1
:1054D00050E02FC0B901882777FD8095982F29E3E8
:1054E00030E040E050E00E9495429B01AC012F5813
:1054F0003140404050406F587140804090405CF0D7
:10550000CA01B9010E94F80520E030E040E05FE305
:105510000E9465030AC0CA01B9010E94F80520E093
:1055200030E040E05FE30E9434030E9456069B0196
:10553000AC01B901CA0108958FE30E948840AA27EF
:1055400097FDA095BA2FBC01CD012CE136E040E0DB
:1055500050E00E94954260597F418C409040E4F0B9
:105560008FE30E948840AA2797FDA095BA2FBC011F
:10557000CD012CE136E040E050E00E9495426059B8
:105580007F418C4090400E94F80520E030E040E0F0
:105590005FE30E9465031BC08FE30E948840AA2737
:1055A00097FDA095BA2FBC01CD012CE136E040E07B
:1055B00050E00E94954260597F418C4090400E948B
:1055C000F80520E030E040E05FE30E9434030E94F1
:1055D00056069B01AC01CA01089580E40E948840F0
:1055E000AA2797FDA095BA2FBC01CD0128E831E08C
:1055F00040E050E00E94954268567B4083409040D6
:10560000E4F080E40E948840AA2797FDA095BA2F75
:10561000BC01CD0128E831E040E050E00E94954215
:1056200068567B40834090400E94F80520E030E0BF
:1056300040E05FE30E9465031BC080E40E94884055
:10564000AA2797FDA095BA2FBC01CD0128E831E02B
:1056500040E050E00E94954268567B408340904075
:105660000E94F80520E030E040E05FE30E94340350
:105670000E9456069B01AC01CA010895EF92FF9269
:105680000F931F930E94ED2A7B018C010E94F80565
:1056900020E03CE742E158E40E94C80587FD04C0D1
:1056A0000E949C2A7B018C01B701C8011F910F91B8
:1056B000FF90EF900895AF92BF92CF92DF92EF925A
:1056C000FF920F931F930E943E2BA090F30AB0907D
:1056D000F40AC090F50AD090F60A0E94F80520E07E
:1056E00030E044EB53E40E948C047B018C0120E009
:1056F00030E040E050E00E94980588234CF0C8015B
:10570000B70120E030E040E05FE30E94650308C09D
:10571000C801B70120E030E040E05FE30E943403BD
:105720000E945606A60EB71EC81ED91EA092F30AE6
:10573000B092F40AC092F50AD092F60A1F910F9126
:10574000FF90EF90DF90CF90BF90AF900895EF92D1
:10575000FF920F931F9386E30E9488409C01442789
:1057600037FD4095542F233B3105410551052CF45D
:1057700020E030E040E050E02DC0235B304040406E
:105780005040CA01B9010E94F8052AE939E141EB0C
:1057900052E40E9492037B018C0120E030E040E063
:1057A00050E00E94980588234CF0C801B70120E022
:1057B00030E040E05FE30E94650308C0C801B70124
:1057C00020E030E040E05FE30E9434030E94560690
:1057D0009B01AC01B901CA011F910F91FF90EF909D
:1057E0000895EF92FF920F931F9387E30E948840E2
:1057F0009C01442737FD4095542F2E383105410533
:1058000051052CF420E030E040E050E02DC02E584F
:10581000304040405040CA01B9010E94F80524E1DF
:105820003EE24FEA52E40E9492037B018C0120E0A9
:1058300030E040E050E00E94980588234CF0C80119
:10584000B70120E030E040E05FE30E94650308C05C
:10585000C801B70120E030E040E05FE30E9434037C
:105860000E9456069B01AC01B901CA011F910F911C
:10587000FF90EF900895BC0185E00E94BC40089520
:10588000EF92FF920F931F93CF93DF9386E599E0FA
:1058900060E040E00E94091D86E599E06CE072E05E
:1058A0000E94E43B86E599E060E041E00E94091D2A
:1058B00086E599E06DE172E00E94E43B0E94442994
:1058C00080E090E00E943B2C0E94DD270E943E2851
:1058D00068EE73E080E090E00E94F63FEE24FF2443
:1058E0008701C0E0D0E00E94F12BE60EF71E081FF2
:1058F000191F68EC70E080E090E00E94F63F21966E
:10590000CA30D10581F787EFE8168FEFF8068FEFE1
:1059100008078FEF18079CF0C801B7012AE030E0B4
:1059200040E050E00E94F642CA01B9010E94F80529
:1059300020E030E040E05FE30E94650312C0C80150
:10594000B7012AE030E040E050E00E94F642CA0190
:10595000B9010E94F80520E030E040E05FE30E94DA
:1059600034030E9456060E94A1230E944929809177
:10597000E80A9091E90A0E943B2CDF91CF911F9198
:105980000F91FF90EF900895EF92FF920F931F9366
:10599000CF93DF93CFEFDFEFFF24F3949DC00E94FE
:1059A0006E289C0182309105F9F083309105E1F178
:1059B0008130910509F090C08091E006882319F0AC
:1059C0000E948F2289C080914C0690914D060397CA
:1059D00009F082C08091DE069091DF0601968F303B
:1059E000910508F079C016C08091E006882319F06F
:1059F0000E94A72271C080914C0690914D0603979A
:105A000009F06AC08091DE069091DF0601978F3021
:105A1000910528F49093DF068093DE065DC0D09355
:105A2000DF06C093DE0658C000914C0610914D066B
:105A30000330110589F10430110544F401301105DA
:105A400061F00230110509F03FC01CC0043011059F
:105A500081F108301105C1F532C08091DE0A9091C4
:105A6000DF0A181619062CF43093DF0A2093DE0A99
:105A70002BC00E947029882339F11093DF0A00930C
:105A8000DE0A22C08091DE0A9091DF0A18161906FC
:105A9000DCF0F092650B18C08091EA0A882331F09F
:105AA0008091E0068F258093E0060EC00E941C289E
:105AB0000BC08091670B8F258093670B05C0809189
:105AC000660B8F258093660B1092D80A1092D90A24
:105AD0001092DA0A1092DB0A0E94C23F24E630E0FC
